{
  "transactions": [
    {
      "hash": "0x5895908f8923f8bb19232d30684727a383a72942e53c0bdc79b9ad04aef34b5e",
      "transactionType": "CREATE",
      "contractName": "SimpleNFT",
      "contractAddress": "0x222517d1197eE3485b243343c2a5D8d0cc0B0d2D",
      "function": null,
      "arguments": null,
      "transaction": {
        "type": "0x02",
        "from": "0x965b0e63e00e7805569ee3b428cf96330dfc57ef",
        "gas": "0x15092f",
        "value": "0x0",
        "data": "0x60806040523480156200001157600080fd5b50336040518060400160405280600981526020016814da5b5c1b1953919560ba1b8152506040518060400160405280600481526020016314d3919560e21b8152508160009081620000639190620001af565b506001620000728282620001af565b5050506001600160a01b038116620000a457604051631e4fbdf760e01b81526000600482015260240160405180910390fd5b620000af81620000b6565b506200027b565b600680546001600160a01b038381166001600160a01b0319831681179093556040519116919082907f8be0079c531659141344cd1fd0a4f28419497f9722a3daafe3b4186f6b6457e090600090a35050565b634e487b7160e01b600052604160045260246000fd5b600181811c908216806200013357607f821691505b6020821081036200015457634e487b7160e01b600052602260045260246000fd5b50919050565b601f821115620001aa576000816000526020600020601f850160051c81016020861015620001855750805b601f850160051c820191505b81811015620001a65782815560010162000191565b5050505b505050565b81516001600160401b03811115620001cb57620001cb62000108565b620001e381620001dc84546200011e565b846200015a565b602080601f8311600181146200021b5760008415620002025750858301515b600019600386901b1c1916600185901b178555620001a6565b600085815260208120601f198616915b828110156200024c578886015182559484019460019091019084016200022b565b50858210156200026b5787850151600019600388901b60f8161c191681555b5050505050600190811b01905550565b6110ce806200028b6000396000f3fe608060405234801561001057600080fd5b506004361061010b5760003560e01c806370a08231116100a2578063a22cb46511610071578063a22cb4651461021b578063b88d4fde1461022e578063c87b56dd14610241578063e985e9c514610254578063f2fde38b1461026757600080fd5b806370a08231146101d9578063715018a6146101fa5780638da5cb5b1461020257806395d89b411461021357600080fd5b806323b872dd116100de57806323b872dd1461018d57806340c10f19146101a057806342842e0e146101b35780636352211e146101c657600080fd5b806301ffc9a71461011057806306fdde0314610138578063081812fc1461014d578063095ea7b314610178575b600080fd5b61012361011e366004610d3e565b61027a565b60405190151581526020015b60405180910390f35b6101406102cc565b60405161012f9190610dab565b61016061015b366004610dbe565b61035e565b6040516001600160a01b03909116815260200161012f565b61018b610186366004610df3565b610387565b005b61018b61019b366004610e1d565b610396565b61018b6101ae366004610df3565b610426565b61018b6101c1366004610e1d565b610438565b6101606101d4366004610dbe565b610458565b6101ec6101e7366004610e59565b610463565b60405190815260200161012f565b61018b6104ab565b6006546001600160a01b0316610160565b6101406104bf565b61018b610229366004610e74565b6104ce565b61018b61023c366004610ec6565b6104d9565b61014061024f366004610dbe565b6104f0565b610123610262366004610fa2565b610565565b61018b610275366004610e59565b610593565b60006001600160e01b031982166380ac58cd60e01b14806102ab57506001600160e01b03198216635b5e139f60e01b145b806102c657506301ffc9a760e01b6001600160e01b03198316145b92915050565b6060600080546102db90610fd5565b80601f016020809104026020016040519081016040528092919081815260200182805461030790610fd5565b80156103545780601f1061032957610100808354040283529160200191610354565b820191906000526020600020905b81548152906001019060200180831161033757829003601f168201915b5050505050905090565b6000610369826105d1565b506000828152600460205260409020546001600160a01b03166102c6565b61039282823361060a565b5050565b6001600160a01b0382166103c557604051633250574960e11b8152600060048201526024015b60405180910390fd5b60006103d2838333610617565b9050836001600160a01b0316816001600160a01b031614610420576040516364283d7b60e01b81526001600160a01b03808616600483015260248201849052821660448201526064016103bc565b50505050565b61042e610710565b610392828261073d565b610453838383604051806020016040528060008152506104d9565b505050565b60006102c6826105d1565b60006001600160a01b03821661048f576040516322718ad960e21b8152600060048201526024016103bc565b506001600160a01b031660009081526003602052604090205490565b6104b3610710565b6104bd6000610757565b565b6060600180546102db90610fd5565b6103923383836107a9565b6104e4848484610396565b61042084848484610848565b60606104fb826105d1565b50600061051360408051602081019091526000815290565b90506000815111610533576040518060200160405280600081525061055e565b8061053d84610971565b60405160200161054e92919061100f565b6040516020818303038152906040525b9392505050565b6001600160a01b03918216600090815260056020908152604080832093909416825291909152205460ff1690565b61059b610710565b6001600160a01b0381166105c557604051631e4fbdf760e01b8152600060048201526024016103bc565b6105ce81610757565b50565b6000818152600260205260408120546001600160a01b0316806102c657604051637e27328960e01b8152600481018490526024016103bc565b6104538383836001610a04565b6000828152600260205260408120546001600160a01b039081169083161561064457610644818486610b0a565b6001600160a01b0381161561068257610661600085600080610a04565b6001600160a01b038116600090815260036020526040902080546000190190555b6001600160a01b038516156106b1576001600160a01b0385166000908152600360205260409020805460010190555b60008481526002602052604080822080546001600160a01b0319166001600160a01b0389811691821790925591518793918516917fddf252ad1be2c89b69c2b068fc378daa952ba7f163c4a11628f55a4df523b3ef91a4949350505050565b6006546001600160a01b031633146104bd5760405163118cdaa760e01b81523360048201526024016103bc565b610392828260405180602001604052806000815250610b6e565b600680546001600160a01b038381166001600160a01b0319831681179093556040519116919082907f8be0079c531659141344cd1fd0a4f28419497f9722a3daafe3b4186f6b6457e090600090a35050565b6001600160a01b0382166107db57604051630b61174360e31b81526001600160a01b03831660048201526024016103bc565b6001600160a01b03838116600081815260056020908152604080832094871680845294825291829020805460ff191686151590811790915591519182527f17307eab39ab6107e8899845ad3d59bd9653f200f220920489ca2b5937696c31910160405180910390a3505050565b6001600160a01b0383163b1561042057604051630a85bd0160e11b81526001600160a01b0384169063150b7a029061088a90339088908790879060040161103e565b6020604051808303816000875af19250505080156108c5575060408051601f3d908101601f191682019092526108c29181019061107b565b60015b61092e573d8080156108f3576040519150601f19603f3d011682016040523d82523d6000602084013e6108f8565b606091505b50805160000361092657604051633250574960e11b81526001600160a01b03851660048201526024016103bc565b805181602001fd5b6001600160e01b03198116630a85bd0160e11b1461096a57604051633250574960e11b81526001600160a01b03851660048201526024016103bc565b5050505050565b6060600061097e83610b85565b600101905060008167ffffffffffffffff81111561099e5761099e610eb0565b6040519080825280601f01601f1916602001820160405280156109c8576020820181803683370190505b5090508181016020015b600019016f181899199a1a9b1b9c1cb0b131b232b360811b600a86061a8153600a85049450846109d257509392505050565b8080610a1857506001600160a01b03821615155b15610ada576000610a28846105d1565b90506001600160a01b03831615801590610a545750826001600160a01b0316816001600160a01b031614155b8015610a675750610a658184610565565b155b15610a905760405163a9fbf51f60e01b81526001600160a01b03841660048201526024016103bc565b8115610ad85783856001600160a01b0316826001600160a01b03167f8c5be1e5ebec7d5bd14f71427d1e84f3dd0314c0f7b2291e5b200ac8c7c3b92560405160405180910390a45b505b5050600090815260046020526040902080546001600160a01b0319166001600160a01b0392909216919091179055565b610b15838383610c5d565b610453576001600160a01b038316610b4357604051637e27328960e01b8152600481018290526024016103bc565b60405163177e802f60e01b81526001600160a01b0383166004820152602481018290526044016103bc565b610b788383610cc3565b6104536000848484610848565b60008072184f03e93ff9f4daa797ed6e38ed64bf6a1f0160401b8310610bc45772184f03e93ff9f4daa797ed6e38ed64bf6a1f0160401b830492506040015b6d04ee2d6d415b85acef81000000008310610bf0576d04ee2d6d415b85acef8100000000830492506020015b662386f26fc100008310610c0e57662386f26fc10000830492506010015b6305f5e1008310610c26576305f5e100830492506008015b6127108310610c3a57612710830492506004015b60648310610c4c576064830492506002015b600a83106102c65760010192915050565b60006001600160a01b03831615801590610cbb5750826001600160a01b0316846001600160a01b03161480610c975750610c978484610565565b80610cbb57506000828152600460205260409020546001600160a01b038481169116145b949350505050565b6001600160a01b038216610ced57604051633250574960e11b8152600060048201526024016103bc565b6000610cfb83836000610617565b90506001600160a01b03811615610453576040516339e3563760e11b8152600060048201526024016103bc565b6001600160e01b0319811681146105ce57600080fd5b600060208284031215610d5057600080fd5b813561055e81610d28565b60005b83811015610d76578181015183820152602001610d5e565b50506000910152565b60008151808452610d97816020860160208601610d5b565b601f01601f19169290920160200192915050565b60208152600061055e6020830184610d7f565b600060208284031215610dd057600080fd5b5035919050565b80356001600160a01b0381168114610dee57600080fd5b919050565b60008060408385031215610e0657600080fd5b610e0f83610dd7565b946020939093013593505050565b600080600060608486031215610e3257600080fd5b610e3b84610dd7565b9250610e4960208501610dd7565b9150604084013590509250925092565b600060208284031215610e6b57600080fd5b61055e82610dd7565b60008060408385031215610e8757600080fd5b610e9083610dd7565b915060208301358015158114610ea557600080fd5b809150509250929050565b634e487b7160e01b600052604160045260246000fd5b60008060008060808587031215610edc57600080fd5b610ee585610dd7565b9350610ef360208601610dd7565b925060408501359150606085013567ffffffffffffffff80821115610f1757600080fd5b818701915087601f830112610f2b57600080fd5b813581811115610f3d57610f3d610eb0565b604051601f8201601f19908116603f01168101908382118183101715610f6557610f65610eb0565b816040528281528a6020848701011115610f7e57600080fd5b82602086016020830137600060208483010152809550505050505092959194509250565b60008060408385031215610fb557600080fd5b610fbe83610dd7565b9150610fcc60208401610dd7565b90509250929050565b600181811c90821680610fe957607f821691505b60208210810361100957634e487b7160e01b600052602260045260246000fd5b50919050565b60008351611021818460208801610d5b565b835190830190611035818360208801610d5b565b01949350505050565b6001600160a01b038581168252841660208201526040810183905260806060820181905260009061107190830184610d7f565b9695505050505050565b60006020828403121561108d57600080fd5b815161055e81610d2856fea26469706673582212206a2e883302333942c68519605562e900a2829d7b749c83b9963fcf5784d0e3d964736f6c63430008160033",
        "nonce": "0x195",
        "accessList": []
      },
      "additionalContracts": [],
      "isFixedGasLimit": false
    },
    {
      "hash": "0x32fc9a96638e595ee970c5c0bb061a4f3945b589b0af1442f1260bdbee34114c",
      "transactionType": "CREATE",
      "contractName": "ERC6551Account",
      "contractAddress": "0xb3b6245d3cda049b17035e66baF8Eb3086000995",
      "function": null,
      "arguments": null,
      "transaction": {
        "type": "0x02",
        "from": "0x965b0e63e00e7805569ee3b428cf96330dfc57ef",
        "gas": "0xcd3e8",
        "value": "0x0",
        "data": "0x608060405234801561001057600080fd5b50610abe806100206000396000f3fe6080604052600436106100745760003560e01c8063523e32601161004e578063523e32601461010e5780638da5cb5b1461012e578063c19d93fb1461015b578063fc0c546a1461017f57600080fd5b806301ffc9a7146100805780631626ba7e146100b557806351945447146100ee57600080fd5b3661007b57005b600080fd5b34801561008c57600080fd5b506100a061009b366004610701565b6101b7565b60405190151581526020015b60405180910390f35b3480156100c157600080fd5b506100d56100d0366004610741565b610209565b6040516001600160e01b031990911681526020016100ac565b6101016100fc36600461085d565b610240565b6040516100ac9190610927565b34801561011a57600080fd5b506100d561012936600461093a565b610379565b34801561013a57600080fd5b5061014361039a565b6040516001600160a01b0390911681526020016100ac565b34801561016757600080fd5b5061017160005481565b6040519081526020016100ac565b34801561018b57600080fd5b50610194610430565b604080519384526001600160a01b039092166020840152908201526060016100ac565b60006001600160e01b031982166301ffc9a760e01b14806101e857506001600160e01b03198216636faff5f160e01b145b8061020357506001600160e01b03198216635194544760e01b145b92915050565b60008061021e61021761039a565b8585610483565b905080156102365750630b135d3f60e11b9050610203565b5060009392505050565b606061024b336104e5565b61028d5760405162461bcd60e51b815260206004820152600e60248201526d24b73b30b634b21039b4b3b732b960911b60448201526064015b60405180910390fd5b60ff8216156102e95760405162461bcd60e51b815260206004820152602260248201527f4f6e6c792063616c6c206f7065726174696f6e732061726520737570706f7274604482015261195960f21b6064820152608401610284565b60008081546102f79061098f565b919050819055506000866001600160a01b031686868660405161031b9291906109b6565b60006040518083038185875af1925050503d8060008114610358576040519150601f19603f3d011682016040523d82523d6000602084013e61035d565b606091505b50925090508061036f57815160208301fd5b5095945050505050565b6000610384846104e5565b156102365750630291f19360e51b5b9392505050565b6000806000806103a8610430565b9250925092504683146103bf576000935050505090565b6040516331a9108f60e11b8152600481018290526001600160a01b03831690636352211e90602401602060405180830381865afa158015610404573d6000803e3d6000fd5b505050506040513d601f19601f8201168201806040525081019061042891906109c6565b935050505090565b60408051606080825260808201909252600091829182918291906020820181803683370190505090506060604d60208301303c8080602001905181019061047791906109e3565b93509350935050909192565b6000806000610492858561050a565b50909250905060008160038111156104ac576104ac610a1c565b1480156104ca5750856001600160a01b0316826001600160a01b0316145b806104db57506104db868686610557565b9695505050505050565b60006104ef61039a565b6001600160a01b0316826001600160a01b0316149050919050565b600080600083516041036105445760208401516040850151606086015160001a61053688828585610632565b955095509550505050610550565b50508151600091506002905b9250925092565b6000806000856001600160a01b03168585604051602401610579929190610a32565b60408051601f198184030181529181526020820180516001600160e01b0316630b135d3f60e11b179052516105ae9190610a53565b600060405180830381855afa9150503d80600081146105e9576040519150601f19603f3d011682016040523d82523d6000602084013e6105ee565b606091505b509150915081801561060257506020815110155b80156104db57508051630b135d3f60e11b906106279083016020908101908401610a6f565b149695505050505050565b600080807f7fffffffffffffffffffffffffffffff5d576e7357a4501ddfe92f46681b20a084111561066d57506000915060039050826106f7565b604080516000808252602082018084528a905260ff891692820192909252606081018790526080810186905260019060a0016020604051602081039080840390855afa1580156106c1573d6000803e3d6000fd5b5050604051601f1901519150506001600160a01b0381166106ed575060009250600191508290506106f7565b9250600091508190505b9450945094915050565b60006020828403121561071357600080fd5b81356001600160e01b03198116811461039357600080fd5b634e487b7160e01b600052604160045260246000fd5b6000806040838503121561075457600080fd5b82359150602083013567ffffffffffffffff8082111561077357600080fd5b818501915085601f83011261078757600080fd5b8135818111156107995761079961072b565b604051601f8201601f19908116603f011681019083821181831017156107c1576107c161072b565b816040528281528860208487010111156107da57600080fd5b8260208601602083013760006020848301015280955050505050509250929050565b6001600160a01b038116811461081157600080fd5b50565b60008083601f84011261082657600080fd5b50813567ffffffffffffffff81111561083e57600080fd5b60208301915083602082850101111561085657600080fd5b9250929050565b60008060008060006080868803121561087557600080fd5b8535610880816107fc565b945060208601359350604086013567ffffffffffffffff8111156108a357600080fd5b6108af88828901610814565b909450925050606086013560ff811681146108c957600080fd5b809150509295509295909350565b60005b838110156108f25781810151838201526020016108da565b50506000910152565b600081518084526109138160208601602086016108d7565b601f01601f19169290920160200192915050565b60208152600061039360208301846108fb565b60008060006040848603121561094f57600080fd5b833561095a816107fc565b9250602084013567ffffffffffffffff81111561097657600080fd5b61098286828701610814565b9497909650939450505050565b6000600182016109af57634e487b7160e01b600052601160045260246000fd5b5060010190565b8183823760009101908152919050565b6000602082840312156109d857600080fd5b8151610393816107fc565b6000806000606084860312156109f857600080fd5b835192506020840151610a0a816107fc565b80925050604084015190509250925092565b634e487b7160e01b600052602160045260246000fd5b828152604060208201526000610a4b60408301846108fb565b949350505050565b60008251610a658184602087016108d7565b9190910192915050565b600060208284031215610a8157600080fd5b505191905056fea2646970667358221220bf7701c7d01d0aec5a0d0fa340c6d2299ea5c4054d452154ec1c553ce06d580164736f6c63430008160033",
        "nonce": "0x196",
        "accessList": []
      },
      "additionalContracts": [],
      "isFixedGasLimit": false
    },
    {
      "hash": "0xdecd63b2fedde0c4d1a48bd37bc0bfb816bbb26f5b77836a1932d562230ab142",
      "transactionType": "CREATE",
      "contractName": "ERC6551Registry",
      "contractAddress": "0xD5BcA46F0b31Aad5168597d5b605F4cae4ff2cD4",
      "function": null,
      "arguments": null,
      "transaction": {
        "type": "0x02",
        "from": "0x965b0e63e00e7805569ee3b428cf96330dfc57ef",
        "gas": "0x3808c",
        "value": "0x0",
        "data": "0x608060405234801561001057600080fd5b5061023b806100206000396000f3fe608060405234801561001057600080fd5b50600436106100365760003560e01c8063246a00211461003b5780638a54c52f1461006a575b600080fd5b61004e6100493660046101b7565b61007d565b6040516001600160a01b03909116815260200160405180910390f35b61004e6100783660046101b7565b6100e1565b600060806024608c376e5af43d82803e903d91602b57fd5bf3606c5285605d52733d60ad80600a3d3981f3363d3d373d3d3d363d7360495260ff60005360b76055206035523060601b60015284601552605560002060601b60601c60005260206000f35b600060806024608c376e5af43d82803e903d91602b57fd5bf3606c5285605d52733d60ad80600a3d3981f3363d3d373d3d3d363d7360495260ff60005360b76055206035523060601b600152846015526055600020803b61018b578560b760556000f580610157576320188a596000526004601cfd5b80606c52508284887f79f19b3655ee38b1ce526556b7731a20c8f218fbda4a3990b6cc4172fdf887226060606ca46020606cf35b8060601b60601c60005260206000f35b80356001600160a01b03811681146101b257600080fd5b919050565b600080600080600060a086880312156101cf57600080fd5b6101d88661019b565b945060208601359350604086013592506101f46060870161019b565b94979396509194608001359291505056fea2646970667358221220a2aa243e685ce9ad857495b8ed3f9efac52f6ac8618a506e960eee65d0ebdba864736f6c63430008160033",
        "nonce": "0x197",
        "accessList": []
      },
      "additionalContracts": [],
      "isFixedGasLimit": false
    },
    {
      "hash": "0x424676859ba60e1becdb08a28be4496cef2c3b463c12fc635dacedb94ac04f54",
      "transactionType": "CALL",
      "contractName": "SimpleNFT",
      "contractAddress": "0x222517d1197eE3485b243343c2a5D8d0cc0B0d2D",
      "function": "mint(address,uint256)",
      "arguments": [
        "0x965B0E63e00E7805569ee3B428Cf96330DFc57EF",
        "1"
      ],
      "transaction": {
        "type": "0x02",
        "from": "0x965b0e63e00e7805569ee3b428cf96330dfc57ef",
        "to": "0x222517d1197ee3485b243343c2a5d8d0cc0b0d2d",
        "gas": "0x196c4",
        "value": "0x0",
        "data": "0x40c10f19000000000000000000000000965b0e63e00e7805569ee3b428cf96330dfc57ef0000000000000000000000000000000000000000000000000000000000000001",
        "nonce": "0x198",
        "accessList": []
      },
      "additionalContracts": [],
      "isFixedGasLimit": false
    },
    {
      "hash": "0xad2e851ba383eda65e59e84e48596eec93997c56d709c26b3b0705af1d879fab",
      "transactionType": "CALL",
      "contractName": "ERC6551Registry",
      "contractAddress": "0xD5BcA46F0b31Aad5168597d5b605F4cae4ff2cD4",
      "function": "createAccount(address,bytes32,uint256,address,uint256)",
      "arguments": [
        "0xb3b6245d3cda049b17035e66baF8Eb3086000995",
        "0x00000000000000000000000000000000000000000000000000000000000004d2",
        "80001",
        "0x222517d1197eE3485b243343c2a5D8d0cc0B0d2D",
        "1"
      ],
      "transaction": {
        "type": "0x02",
        "from": "0x965b0e63e00e7805569ee3b428cf96330dfc57ef",
        "to": "0xd5bca46f0b31aad5168597d5b605f4cae4ff2cd4",
        "gas": "0x21e74",
        "value": "0x0",
        "data": "0x8a54c52f000000000000000000000000b3b6245d3cda049b17035e66baf8eb308600099500000000000000000000000000000000000000000000000000000000000004d20000000000000000000000000000000000000000000000000000000000013881000000000000000000000000222517d1197ee3485b243343c2a5d8d0cc0b0d2d0000000000000000000000000000000000000000000000000000000000000001",
        "nonce": "0x199",
        "accessList": []
      },
      "additionalContracts": [
        {
          "transactionType": "CREATE2",
          "address": "0x895371d5012DE99c5e8455DB8203505C10Ca8163",
          "initCode": "0x3d60ad80600a3d3981f3363d3d373d3d3d363d73b3b6245d3cda049b17035e66baf8eb30860009955af43d82803e903d91602b57fd5bf300000000000000000000000000000000000000000000000000000000000004d20000000000000000000000000000000000000000000000000000000000013881000000000000000000000000222517d1197ee3485b243343c2a5d8d0cc0b0d2d0000000000000000000000000000000000000000000000000000000000000001"
        }
      ],
      "isFixedGasLimit": false
    }
  ],
  "receipts": [
    {
      "transactionHash": "0x5895908f8923f8bb19232d30684727a383a72942e53c0bdc79b9ad04aef34b5e",
      "transactionIndex": "0x1",
      "blockHash": "0x0316d7cbc006b256b229449e379af62d7487f566442e2f711d5d42131195d3ea",
      "blockNumber": "0x28046c7",
      "from": "0x965B0E63e00E7805569ee3B428Cf96330DFc57EF",
      "to": null,
      "cumulativeGasUsed": "0x12b0ca",
      "gasUsed": "0x102fa9",
      "contractAddress": "0x222517d1197eE3485b243343c2a5D8d0cc0B0d2D",
      "logs": [
        {
          "address": "0x222517d1197eE3485b243343c2a5D8d0cc0B0d2D",
          "topics": [
            "0x8be0079c531659141344cd1fd0a4f28419497f9722a3daafe3b4186f6b6457e0",
            "0x0000000000000000000000000000000000000000000000000000000000000000",
            "0x000000000000000000000000965b0e63e00e7805569ee3b428cf96330dfc57ef"
          ],
          "data": "0x",
          "blockHash": "0x0316d7cbc006b256b229449e379af62d7487f566442e2f711d5d42131195d3ea",
          "blockNumber": "0x28046c7",
          "transactionHash": "0x5895908f8923f8bb19232d30684727a383a72942e53c0bdc79b9ad04aef34b5e",
          "transactionIndex": "0x1",
          "logIndex": "0x4",
          "removed": false
        },
        {
          "address": "0x0000000000000000000000000000000000001010",
          "topics": [
            "0x4dfe1bbbcf077ddc3e01291eea2d5c70c2b422b415d95645b9adcfd678cb1d63",
            "0x0000000000000000000000000000000000000000000000000000000000001010",
            "0x000000000000000000000000965b0e63e00e7805569ee3b428cf96330dfc57ef",
            "0x000000000000000000000000be188d6641e8b680743a4815dfa0f6208038960f"
          ],
          "data": "0x0000000000000000000000000000000000000000000000000005e32fd189bdbe0000000000000000000000000000000000000000000000006b10419ff231f18200000000000000000000000000000000000000000000350aa34950f4a07543350000000000000000000000000000000000000000000000006b0a5e7020a833c400000000000000000000000000000000000000000000350aa34f342471ff00f3",
          "blockHash": "0x0316d7cbc006b256b229449e379af62d7487f566442e2f711d5d42131195d3ea",
          "blockNumber": "0x28046c7",
          "transactionHash": "0x5895908f8923f8bb19232d30684727a383a72942e53c0bdc79b9ad04aef34b5e",
          "transactionIndex": "0x1",
          "logIndex": "0x5",
          "removed": false
        }
      ],
      "status": "0x1",
      "logsBloom": "0x00000000000000000000000000000000000000000000000000800000000000000000000000000000000000000000000000008000000000000000000000000000000000000002000000000000000204900001000000000000000100000000004000000000020000000000000000000800000000000000000080000000000800400000000000000000000000000000000000000000000080000000000800000000200000000000000000000000000000000000000000000000000000000000004000000000000000000001000000000000000000000000000000100040000020000000000000000000000000000000000000000000000000000000000000100000",
      "type": "0x2",
      "effectiveGasPrice": "0x5d1d9e9d"
    },
    {
      "transactionHash": "0x32fc9a96638e595ee970c5c0bb061a4f3945b589b0af1442f1260bdbee34114c",
      "transactionIndex": "0x6",
      "blockHash": "0x9253c0b60f2cd2ffae0c6a010f394688124a04f4250eb78b33094de4fbce6f33",
      "blockNumber": "0x28046c8",
      "from": "0x965B0E63e00E7805569ee3B428Cf96330DFc57EF",
      "to": null,
      "cumulativeGasUsed": "0x22b348",
      "gasUsed": "0x9dec3",
      "contractAddress": "0xb3b6245d3cda049b17035e66baF8Eb3086000995",
      "logs": [
        {
          "address": "0x0000000000000000000000000000000000001010",
          "topics": [
            "0x4dfe1bbbcf077ddc3e01291eea2d5c70c2b422b415d95645b9adcfd678cb1d63",
            "0x0000000000000000000000000000000000000000000000000000000000001010",
            "0x000000000000000000000000965b0e63e00e7805569ee3b428cf96330dfc57ef",
            "0x000000000000000000000000be188d6641e8b680743a4815dfa0f6208038960f"
          ],
          "data": "0x00000000000000000000000000000000000000000000000000039711300cea2a0000000000000000000000000000000000000000000000006b0a5e701fb568dd00000000000000000000000000000000000000000000350aa366e0ad10cbf6750000000000000000000000000000000000000000000000006b06c75eefa87eb300000000000000000000000000000000000000000000350aa36a77be40d8e09f",
          "blockHash": "0x9253c0b60f2cd2ffae0c6a010f394688124a04f4250eb78b33094de4fbce6f33",
          "blockNumber": "0x28046c8",
          "transactionHash": "0x32fc9a96638e595ee970c5c0bb061a4f3945b589b0af1442f1260bdbee34114c",
          "transactionIndex": "0x6",
          "logIndex": "0x18",
          "removed": false
        }
      ],
      "status": "0x1",
      "logsBloom": "0x00000000000000000000000000000000000000000000000000000000000000000000000000000000000000000000000000008000000000000000000000000000000000000002000000000000000004900000000000000000000100000000004000000000000000000000000000000000000000000000000080000000000000000000000000000000000000000000000000000000000080000000000000000000200000000000000000000000000000000000000000000000000000000000004000000000000000000001000000000000000000000000000000100040000000000000000000000000000000000000000000000000000000000000000000100000",
      "type": "0x2",
      "effectiveGasPrice": "0x5d1d9e9d"
    },
    {
      "transactionHash": "0xdecd63b2fedde0c4d1a48bd37bc0bfb816bbb26f5b77836a1932d562230ab142",
      "transactionIndex": "0x7",
      "blockHash": "0x9253c0b60f2cd2ffae0c6a010f394688124a04f4250eb78b33094de4fbce6f33",
      "blockNumber": "0x28046c8",
      "from": "0x965B0E63e00E7805569ee3B428Cf96330DFc57EF",
      "to": null,
      "cumulativeGasUsed": "0x256515",
      "gasUsed": "0x2b1cd",
      "contractAddress": "0xD5BcA46F0b31Aad5168597d5b605F4cae4ff2cD4",
      "logs": [
        {
          "address": "0x0000000000000000000000000000000000001010",
          "topics": [
            "0x4dfe1bbbcf077ddc3e01291eea2d5c70c2b422b415d95645b9adcfd678cb1d63",
            "0x0000000000000000000000000000000000000000000000000000000000001010",
            "0x000000000000000000000000965b0e63e00e7805569ee3b428cf96330dfc57ef",
            "0x000000000000000000000000be188d6641e8b680743a4815dfa0f6208038960f"
          ],
          "data": "0x0000000000000000000000000000000000000000000000000000fae7487425b60000000000000000000000000000000000000000000000006b06c75eef14714600000000000000000000000000000000000000000000350aa36a77be40d8e09f0000000000000000000000000000000000000000000000006b05cc77a6a04b9000000000000000000000000000000000000000000000350aa36b72a5894d0655",
          "blockHash": "0x9253c0b60f2cd2ffae0c6a010f394688124a04f4250eb78b33094de4fbce6f33",
          "blockNumber": "0x28046c8",
          "transactionHash": "0xdecd63b2fedde0c4d1a48bd37bc0bfb816bbb26f5b77836a1932d562230ab142",
          "transactionIndex": "0x7",
          "logIndex": "0x19",
          "removed": false
        }
      ],
      "status": "0x1",
      "logsBloom": "0x00000000000000000000000000000000000000000000000000000000000000000000000000000000000000000000000000008000000000000000000000000000000000000002000000000000000004900000000000000000000100000000004000000000000000000000000000000000000000000000000080000000000000000000000000000000000000000000000000000000000080000000000000000000200000000000000000000000000000000000000000000000000000000000004000000000000000000001000000000000000000000000000000100040000000000000000000000000000000000000000000000000000000000000000000100000",
      "type": "0x2",
      "effectiveGasPrice": "0x5d1d9e9d"
    },
    {
      "transactionHash": "0x424676859ba60e1becdb08a28be4496cef2c3b463c12fc635dacedb94ac04f54",
      "transactionIndex": "0x8",
      "blockHash": "0x9253c0b60f2cd2ffae0c6a010f394688124a04f4250eb78b33094de4fbce6f33",
      "blockNumber": "0x28046c8",
      "from": "0x965B0E63e00E7805569ee3B428Cf96330DFc57EF",
      "to": "0x222517d1197eE3485b243343c2a5D8d0cc0B0d2D",
      "cumulativeGasUsed": "0x267b37",
      "gasUsed": "0x11622",
      "contractAddress": null,
      "logs": [
        {
          "address": "0x222517d1197eE3485b243343c2a5D8d0cc0B0d2D",
          "topics": [
            "0xddf252ad1be2c89b69c2b068fc378daa952ba7f163c4a11628f55a4df523b3ef",
            "0x0000000000000000000000000000000000000000000000000000000000000000",
            "0x000000000000000000000000965b0e63e00e7805569ee3b428cf96330dfc57ef",
            "0x0000000000000000000000000000000000000000000000000000000000000001"
          ],
          "data": "0x",
          "blockHash": "0x9253c0b60f2cd2ffae0c6a010f394688124a04f4250eb78b33094de4fbce6f33",
          "blockNumber": "0x28046c8",
          "transactionHash": "0x424676859ba60e1becdb08a28be4496cef2c3b463c12fc635dacedb94ac04f54",
          "transactionIndex": "0x8",
          "logIndex": "0x1a",
          "removed": false
        },
        {
          "address": "0x0000000000000000000000000000000000001010",
          "topics": [
            "0x4dfe1bbbcf077ddc3e01291eea2d5c70c2b422b415d95645b9adcfd678cb1d63",
            "0x0000000000000000000000000000000000000000000000000000000000001010",
            "0x000000000000000000000000965b0e63e00e7805569ee3b428cf96330dfc57ef",
            "0x000000000000000000000000be188d6641e8b680743a4815dfa0f6208038960f"
          ],
          "data": "0x0000000000000000000000000000000000000000000000000000652a881d42dc0000000000000000000000000000000000000000000000006b05cc77a677e08d00000000000000000000000000000000000000000000350aa36b72a5894d06550000000000000000000000000000000000000000000000006b05674d1e5a9db100000000000000000000000000000000000000000000350aa36bd7d0116a4931",
          "blockHash": "0x9253c0b60f2cd2ffae0c6a010f394688124a04f4250eb78b33094de4fbce6f33",
          "blockNumber": "0x28046c8",
          "transactionHash": "0x424676859ba60e1becdb08a28be4496cef2c3b463c12fc635dacedb94ac04f54",
          "transactionIndex": "0x8",
          "logIndex": "0x1b",
          "removed": false
        }
      ],
      "status": "0x1",
      "logsBloom": "0x00000000000000000000000000000000000000000000000000000000000000000000000000000000000000000000000000008000000000000000000000040000000000000002000000000008000204900000000000040000000100000000004000000000020000000000000000000800000000000000000080000010000800000000000000000000000000000000000000000000000080000000000800000000200000000000000000000000000000000000000000000000000000000000004000000002000000000001000000000000000000000000000000100040000060000000000000000000000000000000000000000000000000000000000000100000",
      "type": "0x2",
      "effectiveGasPrice": "0x5d1d9e9d"
    },
    {
      "transactionHash": "0xad2e851ba383eda65e59e84e48596eec93997c56d709c26b3b0705af1d879fab",
      "transactionIndex": "0x9",
      "blockHash": "0x9253c0b60f2cd2ffae0c6a010f394688124a04f4250eb78b33094de4fbce6f33",
      "blockNumber": "0x28046c8",
      "from": "0x965B0E63e00E7805569ee3B428Cf96330DFc57EF",
      "to": "0xD5BcA46F0b31Aad5168597d5b605F4cae4ff2cD4",
      "cumulativeGasUsed": "0x27ee2c",
      "gasUsed": "0x172f5",
      "contractAddress": null,
      "logs": [
        {
          "address": "0xD5BcA46F0b31Aad5168597d5b605F4cae4ff2cD4",
          "topics": [
            "0x79f19b3655ee38b1ce526556b7731a20c8f218fbda4a3990b6cc4172fdf88722",
            "0x000000000000000000000000b3b6245d3cda049b17035e66baf8eb3086000995",
            "0x000000000000000000000000222517d1197ee3485b243343c2a5d8d0cc0b0d2d",
            "0x0000000000000000000000000000000000000000000000000000000000000001"
          ],
          "data": "0x000000000000000000000000895371d5012de99c5e8455db8203505c10ca816300000000000000000000000000000000000000000000000000000000000004d20000000000000000000000000000000000000000000000000000000000013881",
          "blockHash": "0x9253c0b60f2cd2ffae0c6a010f394688124a04f4250eb78b33094de4fbce6f33",
          "blockNumber": "0x28046c8",
          "transactionHash": "0xad2e851ba383eda65e59e84e48596eec93997c56d709c26b3b0705af1d879fab",
          "transactionIndex": "0x9",
          "logIndex": "0x1c",
          "removed": false
        },
        {
          "address": "0x0000000000000000000000000000000000001010",
          "topics": [
            "0x4dfe1bbbcf077ddc3e01291eea2d5c70c2b422b415d95645b9adcfd678cb1d63",
            "0x0000000000000000000000000000000000000000000000000000000000001010",
            "0x000000000000000000000000965b0e63e00e7805569ee3b428cf96330dfc57ef",
            "0x000000000000000000000000be188d6641e8b680743a4815dfa0f6208038960f"
          ],
          "data": "0x000000000000000000000000000000000000000000000000000086edec81f9e60000000000000000000000000000000000000000000000006b05674d1e4a51b300000000000000000000000000000000000000000000350aa36bd7d0116a49310000000000000000000000000000000000000000000000006b04e05f31c857cd00000000000000000000000000000000000000000000350aa36c5ebdfdec4317",
          "blockHash": "0x9253c0b60f2cd2ffae0c6a010f394688124a04f4250eb78b33094de4fbce6f33",
          "blockNumber": "0x28046c8",
          "transactionHash": "0xad2e851ba383eda65e59e84e48596eec93997c56d709c26b3b0705af1d879fab",
          "transactionIndex": "0x9",
          "logIndex": "0x1d",
          "removed": false
        }
      ],
      "status": "0x1",
      "logsBloom": "0x00010000000000000000000000000004000100000000000000000004000000000000000000000000000000000008000000008000000000000000000000040000000000000002000000000000000004900000000000040000000101000000004000000000000000004000000000000000000000002000000081000000000000000000000000010000000000000000000000000000000080000000000000000000200000000000000000000000000000000000000000000000000000000000004000000000000000000001000000000000000000000000001000100040000040000000000000000000000000000000000000000000000000000000000002100000",
      "type": "0x2",
      "effectiveGasPrice": "0x5d1d9e9d"
    }
  ],
  "libraries": [],
  "pending": [],
  "returns": {},
  "timestamp": 1699004687,
  "chain": 80001,
  "multi": false,
  "commit": "8879c08"
}